{
  "_format": "hh-sol-artifact-1",
  "contractName": "CollectiblesOwnership",
  "sourceName": "contracts/CollectiblesOwnership.sol",
  "abi": [
    {
      "constant": true,
      "inputs": [
        {
          "name": "interfaceId",
          "type": "bytes4"
        }
      ],
      "name": "supportsInterface",
      "outputs": [
        {
          "name": "",
          "type": "bool"
        }
      ],
      "payable": false,
      "stateMutability": "view",
      "type": "function"
    },
    {
      "constant": true,
      "inputs": [],
      "name": "cfoAddress",
      "outputs": [
        {
          "name": "",
          "type": "address"
        }
      ],
      "payable": false,
      "stateMutability": "view",
      "type": "function"
    },
    {
      "constant": true,
      "inputs": [],
      "name": "name",
      "outputs": [
        {
          "name": "",
          "type": "string"
        }
      ],
      "payable": false,
      "stateMutability": "view",
      "type": "function"
    },
    {
      "constant": true,
      "inputs": [
        {
          "name": "tokenId",
          "type": "uint256"
        }
      ],
      "name": "getApproved",
      "outputs": [
        {
          "name": "",
          "type": "address"
        }
      ],
      "payable": false,
      "stateMutability": "view",
      "type": "function"
    },
    {
      "constant": false,
      "inputs": [
        {
          "name": "to",
          "type": "address"
        },
        {
          "name": "tokenId",
          "type": "uint256"
        }
      ],
      "name": "approve",
      "outputs": [],
      "payable": false,
      "stateMutability": "nonpayable",
      "type": "function"
    },
    {
      "constant": true,
      "inputs": [
        {
          "name": "",
          "type": "uint256"
        }
      ],
      "name": "collectibles",
      "outputs": [
        {
          "name": "collectionBaseItemId",
          "type": "uint256"
        },
        {
          "name": "issuedTime",
          "type": "uint256"
        },
        {
          "name": "printNumber",
          "type": "uint256"
        }
      ],
      "payable": false,
      "stateMutability": "view",
      "type": "function"
    },
    {
      "constant": true,
      "inputs": [],
      "name": "ceoAddress",
      "outputs": [
        {
          "name": "",
          "type": "address"
        }
      ],
      "payable": false,
      "stateMutability": "view",
      "type": "function"
    },
    {
      "constant": true,
      "inputs": [],
      "name": "implementsERC721",
      "outputs": [
        {
          "name": "",
          "type": "bool"
        }
      ],
      "payable": false,
      "stateMutability": "pure",
      "type": "function"
    },
    {
      "constant": true,
      "inputs": [],
      "name": "totalSupply",
      "outputs": [
        {
          "name": "",
          "type": "uint256"
        }
      ],
      "payable": false,
      "stateMutability": "view",
      "type": "function"
    },
    {
      "constant": true,
      "inputs": [
        {
          "name": "_collectibleId",
          "type": "uint256"
        }
      ],
      "name": "collectiblePrintNumber",
      "outputs": [
        {
          "name": "",
          "type": "uint256"
        }
      ],
      "payable": false,
      "stateMutability": "view",
      "type": "function"
    },
    {
      "constant": false,
      "inputs": [
        {
          "name": "_newWithdrawalAddress",
          "type": "address"
        }
      ],
      "name": "setWithdrawalAddress",
      "outputs": [],
      "payable": false,
      "stateMutability": "nonpayable",
      "type": "function"
    },
    {
      "constant": false,
      "inputs": [
        {
          "name": "from",
          "type": "address"
        },
        {
          "name": "to",
          "type": "address"
        },
        {
          "name": "tokenId",
          "type": "uint256"
        }
      ],
      "name": "transferFrom",
      "outputs": [],
      "payable": true,
      "stateMutability": "payable",
      "type": "function"
    },
    {
      "constant": false,
      "inputs": [
        {
          "name": "_newCEO",
          "type": "address"
        }
      ],
      "name": "setCEO",
      "outputs": [],
      "payable": false,
      "stateMutability": "nonpayable",
      "type": "function"
    },
    {
      "constant": true,
      "inputs": [
        {
          "name": "",
          "type": "address"
        }
      ],
      "name": "balances",
      "outputs": [
        {
          "name": "",
          "type": "uint256"
        }
      ],
      "payable": false,
      "stateMutability": "view",
      "type": "function"
    },
    {
      "constant": false,
      "inputs": [
        {
          "name": "_newCOO",
          "type": "address"
        }
      ],
      "name": "setCOO",
      "outputs": [],
      "payable": false,
      "stateMutability": "nonpayable",
      "type": "function"
    },
    {
      "constant": true,
      "inputs": [
        {
          "name": "owner",
          "type": "address"
        },
        {
          "name": "index",
          "type": "uint256"
        }
      ],
      "name": "tokenOfOwnerByIndex",
      "outputs": [
        {
          "name": "",
          "type": "uint256"
        }
      ],
      "payable": false,
      "stateMutability": "view",
      "type": "function"
    },
    {
      "constant": false,
      "inputs": [],
      "name": "withdraw",
      "outputs": [],
      "payable": false,
      "stateMutability": "nonpayable",
      "type": "function"
    },
    {
      "constant": true,
      "inputs": [
        {
          "name": "_collectibleId",
          "type": "uint256"
        }
      ],
      "name": "collectibleIssuedTime",
      "outputs": [
        {
          "name": "",
          "type": "uint256"
        }
      ],
      "payable": false,
      "stateMutability": "view",
      "type": "function"
    },
    {
      "constant": false,
      "inputs": [],
      "name": "unpause",
      "outputs": [],
      "payable": false,
      "stateMutability": "nonpayable",
      "type": "function"
    },
    {
      "constant": false,
      "inputs": [
        {
          "name": "to",
          "type": "address"
        },
        {
          "name": "tokenId",
          "type": "uint256"
        }
      ],
      "name": "mint",
      "outputs": [
        {
          "name": "",
          "type": "bool"
        }
      ],
      "payable": false,
      "stateMutability": "nonpayable",
      "type": "function"
    },
    {
      "constant": false,
      "inputs": [
        {
          "name": "from",
          "type": "address"
        },
        {
          "name": "to",
          "type": "address"
        },
        {
          "name": "tokenId",
          "type": "uint256"
        }
      ],
      "name": "safeTransferFrom",
      "outputs": [],
      "payable": true,
      "stateMutability": "payable",
      "type": "function"
    },
    {
      "constant": false,
      "inputs": [
        {
          "name": "_tokenId",
          "type": "uint256"
        },
        {
          "name": "_collectionBaseItemId",
          "type": "uint256"
        }
      ],
      "name": "performProfitDistribution",
      "outputs": [],
      "payable": true,
      "stateMutability": "payable",
      "type": "function"
    },
    {
      "constant": false,
      "inputs": [
        {
          "name": "_newCFO",
          "type": "address"
        }
      ],
      "name": "setCFO",
      "outputs": [],
      "payable": false,
      "stateMutability": "nonpayable",
      "type": "function"
    },
    {
      "constant": false,
      "inputs": [
        {
          "name": "_collectionBaseItemId",
          "type": "uint256"
        },
        {
          "name": "_issuedTime",
          "type": "uint256"
        }
      ],
      "name": "pushCollectible",
      "outputs": [
        {
          "name": "",
          "type": "uint256"
        },
        {
          "name": "",
          "type": "uint256"
        }
      ],
      "payable": false,
      "stateMutability": "nonpayable",
      "type": "function"
    },
    {
      "constant": true,
      "inputs": [
        {
          "name": "index",
          "type": "uint256"
        }
      ],
      "name": "tokenByIndex",
      "outputs": [
        {
          "name": "",
          "type": "uint256"
        }
      ],
      "payable": false,
      "stateMutability": "view",
      "type": "function"
    },
    {
      "constant": true,
      "inputs": [],
      "name": "dadaPercentageFirstBuy",
      "outputs": [
        {
          "name": "",
          "type": "uint256"
        }
      ],
      "payable": false,
      "stateMutability": "view",
      "type": "function"
    },
    {
      "constant": true,
      "inputs": [
        {
          "name": "_owner",
          "type": "address"
        }
      ],
      "name": "tokensOf",
      "outputs": [
        {
          "name": "",
          "type": "uint256[]"
        }
      ],
      "payable": false,
      "stateMutability": "view",
      "type": "function"
    },
    {
      "constant": true,
      "inputs": [],
      "name": "paused",
      "outputs": [
        {
          "name": "",
          "type": "bool"
        }
      ],
      "payable": false,
      "stateMutability": "view",
      "type": "function"
    },
    {
      "constant": false,
      "inputs": [],
      "name": "withdrawBalance",
      "outputs": [],
      "payable": false,
      "stateMutability": "nonpayable",
      "type": "function"
    },
    {
      "constant": true,
      "inputs": [
        {
          "name": "tokenId",
          "type": "uint256"
        }
      ],
      "name": "ownerOf",
      "outputs": [
        {
          "name": "",
          "type": "address"
        }
      ],
      "payable": false,
      "stateMutability": "view",
      "type": "function"
    },
    {
      "constant": false,
      "inputs": [
        {
          "name": "_collectibleOwner",
          "type": "address"
        },
        {
          "name": "_purchaser",
          "type": "address"
        },
        {
          "name": "_collectibleId",
          "type": "uint256"
        },
        {
          "name": "_collectionBaseItemId",
          "type": "uint256"
        },
        {
          "name": "_issuedTime",
          "type": "uint256"
        },
        {
          "name": "_printNumber",
          "type": "uint256"
        }
      ],
      "name": "emitCollectibleIssuedEvent",
      "outputs": [],
      "payable": false,
      "stateMutability": "nonpayable",
      "type": "function"
    },
    {
      "constant": true,
      "inputs": [
        {
          "name": "_collectionBaseItemId",
          "type": "uint256"
        }
      ],
      "name": "collectionBaseItemPriceOf",
      "outputs": [
        {
          "name": "",
          "type": "uint256"
        }
      ],
      "payable": false,
      "stateMutability": "view",
      "type": "function"
    },
    {
      "constant": true,
      "inputs": [
        {
          "name": "owner",
          "type": "address"
        }
      ],
      "name": "balanceOf",
      "outputs": [
        {
          "name": "",
          "type": "uint256"
        }
      ],
      "payable": false,
      "stateMutability": "view",
      "type": "function"
    },
    {
      "constant": false,
      "inputs": [],
      "name": "renounceOwnership",
      "outputs": [],
      "payable": false,
      "stateMutability": "nonpayable",
      "type": "function"
    },
    {
      "constant": true,
      "inputs": [],
      "name": "m_asset",
      "outputs": [
        {
          "name": "",
          "type": "address"
        }
      ],
      "payable": false,
      "stateMutability": "view",
      "type": "function"
    },
    {
      "constant": false,
      "inputs": [
        {
          "name": "newCollectionBaseItemModelContractAddress",
          "type": "address"
        }
      ],
      "name": "upgradeCollectionBaseItemModelContract",
      "outputs": [],
      "payable": false,
      "stateMutability": "nonpayable",
      "type": "function"
    },
    {
      "constant": false,
      "inputs": [],
      "name": "pause",
      "outputs": [],
      "payable": false,
      "stateMutability": "nonpayable",
      "type": "function"
    },
    {
      "constant": true,
      "inputs": [
        {
          "name": "",
          "type": "uint256"
        }
      ],
      "name": "tokenLastPrice",
      "outputs": [
        {
          "name": "",
          "type": "uint256"
        }
      ],
      "payable": false,
      "stateMutability": "view",
      "type": "function"
    },
    {
      "constant": true,
      "inputs": [],
      "name": "owner",
      "outputs": [
        {
          "name": "",
          "type": "address"
        }
      ],
      "payable": false,
      "stateMutability": "view",
      "type": "function"
    },
    {
      "constant": true,
      "inputs": [],
      "name": "isOwner",
      "outputs": [
        {
          "name": "",
          "type": "bool"
        }
      ],
      "payable": false,
      "stateMutability": "view",
      "type": "function"
    },
    {
      "constant": true,
      "inputs": [
        {
          "name": "_collectionBaseItemId",
          "type": "uint256"
        }
      ],
      "name": "isCollectionBaseItemActive",
      "outputs": [
        {
          "name": "",
          "type": "bool"
        }
      ],
      "payable": false,
      "stateMutability": "view",
      "type": "function"
    },
    {
      "constant": true,
      "inputs": [],
      "name": "symbol",
      "outputs": [
        {
          "name": "",
          "type": "string"
        }
      ],
      "payable": false,
      "stateMutability": "view",
      "type": "function"
    },
    {
      "constant": false,
      "inputs": [
        {
          "name": "claimEnablerContractAddress",
          "type": "address"
        }
      ],
      "name": "setClaimEnabler",
      "outputs": [],
      "payable": false,
      "stateMutability": "nonpayable",
      "type": "function"
    },
    {
      "constant": false,
      "inputs": [
        {
          "name": "newExhibitModelContractAddress",
          "type": "address"
        }
      ],
      "name": "upgradeExhibitModelContract",
      "outputs": [],
      "payable": false,
      "stateMutability": "nonpayable",
      "type": "function"
    },
    {
      "constant": true,
      "inputs": [
        {
          "name": "_collectibleId",
          "type": "uint256"
        }
      ],
      "name": "collectibleInfo",
      "outputs": [
        {
          "name": "",
          "type": "uint256"
        },
        {
          "name": "",
          "type": "uint256"
        },
        {
          "name": "",
          "type": "uint256"
        },
        {
          "name": "",
          "type": "uint256"
        },
        {
          "name": "",
          "type": "uint256"
        },
        {
          "name": "",
          "type": "uint256"
        },
        {
          "name": "",
          "type": "uint256"
        },
        {
          "name": "",
          "type": "uint256"
        },
        {
          "name": "",
          "type": "string"
        },
        {
          "name": "",
          "type": "string"
        }
      ],
      "payable": false,
      "stateMutability": "view",
      "type": "function"
    },
    {
      "constant": false,
      "inputs": [
        {
          "name": "_collectionBaseItemId",
          "type": "uint256"
        }
      ],
      "name": "purchaseOneUnitInStock",
      "outputs": [],
      "payable": false,
      "stateMutability": "nonpayable",
      "type": "function"
    },
    {
      "constant": false,
      "inputs": [
        {
          "name": "to",
          "type": "address"
        },
        {
          "name": "approved",
          "type": "bool"
        }
      ],
      "name": "setApprovalForAll",
      "outputs": [],
      "payable": false,
      "stateMutability": "nonpayable",
      "type": "function"
    },
    {
      "constant": true,
      "inputs": [],
      "name": "cooAddress",
      "outputs": [
        {
          "name": "",
          "type": "address"
        }
      ],
      "payable": false,
      "stateMutability": "view",
      "type": "function"
    },
    {
      "constant": true,
      "inputs": [],
      "name": "m_collectionBaseItem",
      "outputs": [
        {
          "name": "",
          "type": "address"
        }
      ],
      "payable": false,
      "stateMutability": "view",
      "type": "function"
    },
    {
      "constant": true,
      "inputs": [],
      "name": "dadaPercentage",
      "outputs": [
        {
          "name": "",
          "type": "uint256"
        }
      ],
      "payable": false,
      "stateMutability": "view",
      "type": "function"
    },
    {
      "constant": false,
      "inputs": [
        {
          "name": "from",
          "type": "address"
        },
        {
          "name": "to",
          "type": "address"
        },
        {
          "name": "tokenId",
          "type": "uint256"
        },
        {
          "name": "_data",
          "type": "bytes"
        }
      ],
      "name": "safeTransferFrom",
      "outputs": [],
      "payable": true,
      "stateMutability": "payable",
      "type": "function"
    },
    {
      "constant": false,
      "inputs": [
        {
          "name": "newAssetModelContractAddress",
          "type": "address"
        }
      ],
      "name": "upgradeAssetModelContract",
      "outputs": [],
      "payable": false,
      "stateMutability": "nonpayable",
      "type": "function"
    },
    {
      "constant": true,
      "inputs": [],
      "name": "tokenOwnerPercentage",
      "outputs": [
        {
          "name": "",
          "type": "uint256"
        }
      ],
      "payable": false,
      "stateMutability": "view",
      "type": "function"
    },
    {
      "constant": true,
      "inputs": [
        {
          "name": "tokenId",
          "type": "uint256"
        }
      ],
      "name": "tokenURI",
      "outputs": [
        {
          "name": "",
          "type": "string"
        }
      ],
      "payable": false,
      "stateMutability": "view",
      "type": "function"
    },
    {
      "constant": true,
      "inputs": [],
      "name": "artistPercentage",
      "outputs": [
        {
          "name": "",
          "type": "uint256"
        }
      ],
      "payable": false,
      "stateMutability": "view",
      "type": "function"
    },
    {
      "constant": false,
      "inputs": [
        {
          "name": "_authorizedAddress",
          "type": "address"
        },
        {
          "name": "_authorizedStatus",
          "type": "bool"
        }
      ],
      "name": "setAuthorizationStatus",
      "outputs": [],
      "payable": false,
      "stateMutability": "nonpayable",
      "type": "function"
    },
    {
      "constant": true,
      "inputs": [
        {
          "name": "owner",
          "type": "address"
        },
        {
          "name": "operator",
          "type": "address"
        }
      ],
      "name": "isApprovedForAll",
      "outputs": [
        {
          "name": "",
          "type": "bool"
        }
      ],
      "payable": false,
      "stateMutability": "view",
      "type": "function"
    },
    {
      "constant": true,
      "inputs": [],
      "name": "artistPercentageFirstBuy",
      "outputs": [
        {
          "name": "",
          "type": "uint256"
        }
      ],
      "payable": false,
      "stateMutability": "view",
      "type": "function"
    },
    {
      "constant": true,
      "inputs": [],
      "name": "withdrawalAddress",
      "outputs": [
        {
          "name": "",
          "type": "address"
        }
      ],
      "payable": false,
      "stateMutability": "view",
      "type": "function"
    },
    {
      "constant": false,
      "inputs": [
        {
          "name": "newOwner",
          "type": "address"
        }
      ],
      "name": "transferOwnership",
      "outputs": [],
      "payable": false,
      "stateMutability": "nonpayable",
      "type": "function"
    },
    {
      "constant": true,
      "inputs": [
        {
          "name": "_collectibleId",
          "type": "uint256"
        }
      ],
      "name": "getCollectionBaseItemId",
      "outputs": [
        {
          "name": "",
          "type": "uint256"
        }
      ],
      "payable": false,
      "stateMutability": "view",
      "type": "function"
    },
    {
      "constant": true,
      "inputs": [],
      "name": "m_exhibit",
      "outputs": [
        {
          "name": "",
          "type": "address"
        }
      ],
      "payable": false,
      "stateMutability": "view",
      "type": "function"
    },
    {
      "inputs": [
        {
          "name": "exhibitModelContractAddress",
          "type": "address"
        },
        {
          "name": "assetModelContractAddress",
          "type": "address"
        },
        {
          "name": "collectionBaseItemModelContractAddress",
          "type": "address"
        }
      ],
      "payable": false,
      "stateMutability": "nonpayable",
      "type": "constructor"
    },
    {
      "anonymous": false,
      "inputs": [
        {
          "indexed": false,
          "name": "to",
          "type": "address"
        },
        {
          "indexed": false,
          "name": "amount",
          "type": "uint256"
        }
      ],
      "name": "Withdraw",
      "type": "event"
    },
    {
      "anonymous": false,
      "inputs": [
        {
          "indexed": true,
          "name": "collectibleOwner",
          "type": "address"
        },
        {
          "indexed": true,
          "name": "purchaser",
          "type": "address"
        },
        {
          "indexed": false,
          "name": "collectibleId",
          "type": "uint256"
        },
        {
          "indexed": false,
          "name": "collectionBaseItemId",
          "type": "uint256"
        },
        {
          "indexed": false,
          "name": "issuedTime",
          "type": "uint256"
        },
        {
          "indexed": false,
          "name": "printNumber",
          "type": "uint256"
        }
      ],
      "name": "CollectibleIssued",
      "type": "event"
    },
    {
      "anonymous": false,
      "inputs": [
        {
          "indexed": false,
          "name": "newContract",
          "type": "address"
        }
      ],
      "name": "ContractUpgrade",
      "type": "event"
    },
    {
      "anonymous": false,
      "inputs": [],
      "name": "Paused",
      "type": "event"
    },
    {
      "anonymous": false,
      "inputs": [],
      "name": "Unpaused",
      "type": "event"
    },
    {
      "anonymous": false,
      "inputs": [],
      "name": "Pause",
      "type": "event"
    },
    {
      "anonymous": false,
      "inputs": [],
      "name": "Unpause",
      "type": "event"
    },
    {
      "anonymous": false,
      "inputs": [
        {
          "indexed": true,
          "name": "previousOwner",
          "type": "address"
        },
        {
          "indexed": true,
          "name": "newOwner",
          "type": "address"
        }
      ],
      "name": "OwnershipTransferred",
      "type": "event"
    },
    {
      "anonymous": false,
      "inputs": [
        {
          "indexed": true,
          "name": "from",
          "type": "address"
        },
        {
          "indexed": true,
          "name": "to",
          "type": "address"
        },
        {
          "indexed": true,
          "name": "tokenId",
          "type": "uint256"
        }
      ],
      "name": "Transfer",
      "type": "event"
    },
    {
      "anonymous": false,
      "inputs": [
        {
          "indexed": true,
          "name": "owner",
          "type": "address"
        },
        {
          "indexed": true,
          "name": "approved",
          "type": "address"
        },
        {
          "indexed": true,
          "name": "tokenId",
          "type": "uint256"
        }
      ],
      "name": "Approval",
      "type": "event"
    },
    {
      "anonymous": false,
      "inputs": [
        {
          "indexed": true,
          "name": "owner",
          "type": "address"
        },
        {
          "indexed": true,
          "name": "operator",
          "type": "address"
        },
        {
          "indexed": false,
          "name": "approved",
          "type": "bool"
        }
      ],
      "name": "ApprovalForAll",
      "type": "event"
    }
  ],
  "bytecode": "0x6080604052600c805460a060020a60ff02199081169091556011805490911690553480156200002d57600080fd5b50604051606080620036b3833981018060405260608110156200004f57600080fd5b50805160208083015160409384015184518086018652601081527f4441444120436f6c6c65637469626c6500000000000000000000000000000000818501528551808701909652600286527fc6890000000000000000000000000000000000000000000000000000000000009386019390935292939092918491849184918181620001037f01ffc9a700000000000000000000000000000000000000000000000000000000640100000000620002a5810204565b620001377f80ac58cd00000000000000000000000000000000000000000000000000000000640100000000620002a5810204565b6200016b7f780e9d6300000000000000000000000000000000000000000000000000000000640100000000620002a5810204565b81516200018090600990602085019062000312565b5080516200019690600a90602084019062000312565b50620001cb7f5b5e139f00000000000000000000000000000000000000000000000000000000640100000000620002a5810204565b5050600c8054600160a060020a031916331790819055604051600160a060020a03919091169250600091507f8be0079c531659141344cd1fd0a4f28419497f9722a3daafe3b4186f6b6457e0908290a360138054600160a060020a0319908116600160a060020a0395861617909155601480548216938516939093179092556012805483169190931617909155600e805433908316811790915560108054831682179055600f8054831682179055601180549092161790555050603c60185550601e6016819055600a6017556046601955601a55620003b7565b7fffffffff000000000000000000000000000000000000000000000000000000008082161415620002d557600080fd5b7fffffffff00000000000000000000000000000000000000000000000000000000166000908152602081905260409020805460ff19166001179055565b828054600181600116156101000203166002900490600052602060002090601f016020900481019282601f106200035557805160ff191683800117855562000385565b8280016001018555821562000385579182015b828111156200038557825182559160200191906001019062000368565b506200039392915062000397565b5090565b620003b491905b808211156200039357600081556001016200039e565b90565b6132ec80620003c76000396000f3fe6080604052600436106103b15760003560e060020a900480636cdec3b7116101eb578063a22cb46511610111578063d7179f4c116100a4578063f2bcd02211610073578063f2bcd02214610f82578063f2fde38b14610f97578063f9c23b4b14610fca578063fdfa1cac14610ff4576103b1565b8063d7179f4c14610ee2578063e4f39c9814610ef7578063e985e9c514610f32578063ef2a5c1014610f6d576103b1565b8063b88d4fde116100e0578063b88d4fde14610daa578063bafc1b7a14610e70578063bccbc59614610ea3578063c87b56dd14610eb8576103b1565b8063a22cb46514610d30578063b047fb5014610d6b578063b55e4c2214610d80578063b7cd208814610d95576103b1565b80638da5cb5b1161018957806397719410116101585780639771941014610b60578063990f4a3f14610b935780639caeee0e14610bc65780639e53c55414610d06576103b1565b80638da5cb5b14610af75780638f32d59b14610b0c578063916ada2a14610b2157806395d89b4114610b4b576103b1565b8063754d4c0e116101c5578063754d4c0e14610a705780637da31b0214610a855780638456cb5914610ab857806387fe831d14610acd576103b1565b80636cdec3b7146109fe57806370a0823114610a28578063715018a614610a5b576103b1565b80632f745c59116102db5780634e89fdca1161026e5780635c975abb1161023d5780635c975abb146109555780635fd8c7101461096a5780636352211e1461097f57806368b3abfe146109a9576103b1565b80634e89fdca1461084a5780634f6ccce714610893578063515e9512146108bd5780635a3f2672146108d2576103b1565b806340c10f19116102aa57806340c10f191461078557806342842e0e146107be5780634aff215a146107f45780634e0a337914610817576103b1565b80632f745c59146106f85780633ccfd60b146107315780633d504625146107465780633f4ba83a14610770576103b1565b80631051db341161035357806323b872dd1161032257806323b872dd1461062957806327d7874c1461065f57806327e235e3146106925780632ba73c15146106c5576103b1565b80631051db341461059057806318160ddd146105a557806320fa0ef1146105cc57806321b8092e146105f6576103b1565b8063081812fc1161038f578063081812fc146104ce578063095ea7b3146104f85780630a09859d146105335780630a0f81681461057b576103b1565b806301ffc9a7146103b65780630519ce791461041357806306fdde0314610444575b600080fd5b3480156103c257600080fd5b506103ff600480360360208110156103d957600080fd5b50357bffffffffffffffffffffffffffffffffffffffffffffffffffffffff1916611009565b604080519115158252519081900360200190f35b34801561041f57600080fd5b5061042861103d565b60408051600160a060020a039092168252519081900360200190f35b34801561045057600080fd5b5061045961104c565b6040805160208082528351818301528351919283929083019185019080838360005b8381101561049357818101518382015260200161047b565b50505050905090810190601f1680156104c05780820380516001836020036101000a031916815260200191505b509250505060405180910390f35b3480156104da57600080fd5b50610428600480360360208110156104f157600080fd5b50356110e3565b34801561050457600080fd5b506105316004803603604081101561051b57600080fd5b50600160a060020a038135169060200135611115565b005b34801561053f57600080fd5b5061055d6004803603602081101561055657600080fd5b503561113a565b60408051938452602084019290925282820152519081900360600190f35b34801561058757600080fd5b5061042861116b565b34801561059c57600080fd5b506103ff61117a565b3480156105b157600080fd5b506105ba61117f565b60408051918252519081900360200190f35b3480156105d857600080fd5b506105ba600480360360208110156105ef57600080fd5b5035611185565b34801561060257600080fd5b506105316004803603602081101561061957600080fd5b5035600160a060020a03166111af565b6105316004803603606081101561063f57600080fd5b50600160a060020a038135811691602081013590911690604001356111fd565b34801561066b57600080fd5b506105316004803603602081101561068257600080fd5b5035600160a060020a0316611321565b34801561069e57600080fd5b506105ba600480360360208110156106b557600080fd5b5035600160a060020a031661136f565b3480156106d157600080fd5b50610531600480360360208110156106e857600080fd5b5035600160a060020a0316611381565b34801561070457600080fd5b506105ba6004803603604081101561071b57600080fd5b50600160a060020a0381351690602001356113cf565b34801561073d57600080fd5b5061053161141d565b34801561075257600080fd5b506105ba6004803603602081101561076957600080fd5b50356114e1565b34801561077c57600080fd5b5061053161150b565b34801561079157600080fd5b506103ff600480360360408110156107a857600080fd5b50600160a060020a038135169060200135611583565b610531600480360360608110156107d457600080fd5b50600160a060020a03813581169160208101359091169060400135611602565b6105316004803603604081101561080a57600080fd5b5080359060200135611623565b34801561082357600080fd5b506105316004803603602081101561083a57600080fd5b5035600160a060020a0316611630565b34801561085657600080fd5b5061087a6004803603604081101561086d57600080fd5b508035906020013561167e565b6040805192835260208301919091528051918290030190f35b34801561089f57600080fd5b506105ba600480360360208110156108b657600080fd5b5035611821565b3480156108c957600080fd5b506105ba611856565b3480156108de57600080fd5b50610905600480360360208110156108f557600080fd5b5035600160a060020a031661185c565b60408051602080825283518183015283519192839290830191858101910280838360005b83811015610941578181015183820152602001610929565b505050509050019250505060405180910390f35b34801561096157600080fd5b506103ff6118c8565b34801561097657600080fd5b506105316118d8565b34801561098b57600080fd5b50610428600480360360208110156109a257600080fd5b503561195a565b3480156109b557600080fd5b50610531600480360360c08110156109cc57600080fd5b50600160a060020a03813581169160208101359091169060408101359060608101359060808101359060a0013561197e565b348015610a0a57600080fd5b506105ba60048036036020811015610a2157600080fd5b5035611a2f565b348015610a3457600080fd5b506105ba60048036036020811015610a4b57600080fd5b5035600160a060020a0316611ac6565b348015610a6757600080fd5b50610531611af9565b348015610a7c57600080fd5b50610428611b56565b348015610a9157600080fd5b5061053160048036036020811015610aa857600080fd5b5035600160a060020a0316611b65565b348015610ac457600080fd5b50610531611b9e565b348015610ad957600080fd5b506105ba60048036036020811015610af057600080fd5b5035611c47565b348015610b0357600080fd5b50610428611c59565b348015610b1857600080fd5b506103ff611c68565b348015610b2d57600080fd5b506103ff60048036036020811015610b4457600080fd5b5035611c79565b348015610b5757600080fd5b50610459611cde565b348015610b6c57600080fd5b5061053160048036036020811015610b8357600080fd5b5035600160a060020a0316611d3f565b348015610b9f57600080fd5b5061053160048036036020811015610bb657600080fd5b5035600160a060020a0316611d7a565b348015610bd257600080fd5b50610bf060048036036020811015610be957600080fd5b5035611db3565b604051808b81526020018a81526020018981526020018881526020018781526020018681526020018581526020018481526020018060200180602001838103835285818151815260200191508051906020019080838360005b83811015610c61578181015183820152602001610c49565b50505050905090810190601f168015610c8e5780820380516001836020036101000a031916815260200191505b50838103825284518152845160209182019186019080838360005b83811015610cc1578181015183820152602001610ca9565b50505050905090810190601f168015610cee5780820380516001836020036101000a031916815260200191505b509c5050505050505050505050505060405180910390f35b348015610d1257600080fd5b5061053160048036036020811015610d2957600080fd5b50356121dd565b348015610d3c57600080fd5b5061053160048036036040811015610d5357600080fd5b50600160a060020a03813516906020013515156122c0565b348015610d7757600080fd5b506104286122e1565b348015610d8c57600080fd5b506104286122f0565b348015610da157600080fd5b506105ba6122ff565b61053160048036036080811015610dc057600080fd5b600160a060020a03823581169260208101359091169160408201359190810190608081016060820135640100000000811115610dfb57600080fd5b820183602082011115610e0d57600080fd5b80359060200191846001830284011164010000000083111715610e2f57600080fd5b91908080601f016020809104026020016040519081016040528093929190818152602001838380828437600092019190915250929550612305945050505050565b348015610e7c57600080fd5b5061053160048036036020811015610e9357600080fd5b5035600160a060020a031661232d565b348015610eaf57600080fd5b506105ba612366565b348015610ec457600080fd5b5061045960048036036020811015610edb57600080fd5b503561236c565b348015610eee57600080fd5b506105ba612461565b348015610f0357600080fd5b5061053160048036036040811015610f1a57600080fd5b50600160a060020a0381351690602001351515612467565b348015610f3e57600080fd5b506103ff60048036036040811015610f5557600080fd5b50600160a060020a03813581169160200135166124a5565b348015610f7957600080fd5b506105ba6124d3565b348015610f8e57600080fd5b506104286124d9565b348015610fa357600080fd5b5061053160048036036020811015610fba57600080fd5b5035600160a060020a03166124e8565b348015610fd657600080fd5b506105ba60048036036020811015610fed57600080fd5b5035612504565b34801561100057600080fd5b5061042861250f565b7bffffffffffffffffffffffffffffffffffffffffffffffffffffffff191660009081526020819052604090205460ff1690565b600f54600160a060020a031681565b60098054604080516020601f60026000196101006001881615020190951694909404938401819004810282018101909252828152606093909290918301828280156110d85780601f106110ad576101008083540402835291602001916110d8565b820191906000526020600020905b8154815290600101906020018083116110bb57829003601f168201915b505050505090505b90565b60006110ee8261251e565b15156110f957600080fd5b50600090815260026020526040902054600160a060020a031690565b60115460a060020a900460ff161561112c57600080fd5b611136828261253b565b5050565b601580548290811061114857fe5b600091825260209091206003909102018054600182015460029092015490925083565b600e54600160a060020a031681565b600190565b60075490565b600060158281548110151561119657fe5b9060005260206000209060030201600201549050919050565b600e54600160a060020a031633146111c657600080fd5b600160a060020a03811615156111db57600080fd5b60118054600160a060020a031916600160a060020a0392909216919091179055565b60115460a060020a900460ff161561121457600080fd5b600061121f826125e4565b90503361122b8161260e565b80156112505750600160a060020a0381166000908152601b602052604090205460ff16155b156112f257601254604080517fb9186d7d000000000000000000000000000000000000000000000000000000008152600481018590529051600160a060020a039092169163b9186d7d91602480820192602092909190829003018186803b1580156112ba57600080fd5b505afa1580156112ce573d6000803e3d6000fd5b505050506040513d60208110156112e457600080fd5b50513410156112f257600080fd5b600034111561130f5761130f83836113098661195a565b34612616565b61131a858585612881565b5050505050565b600e54600160a060020a0316331461133857600080fd5b600160a060020a038116151561134d57600080fd5b600e8054600160a060020a031916600160a060020a0392909216919091179055565b601d6020526000908152604090205481565b600e54600160a060020a0316331461139857600080fd5b600160a060020a03811615156113ad57600080fd5b60108054600160a060020a031916600160a060020a0392909216919091179055565b60006113da83611ac6565b82106113e557600080fd5b600160a060020a038316600090815260056020526040902080548390811061140957fe5b906000526020600020015490505b92915050565b60115460a060020a900460ff161561143457600080fd5b336000818152601d60205260408120541161144e57600080fd5b600160a060020a0381166000818152601d6020526040808220805490839055905190929183156108fc02918491818181858888f19350505050158015611498573d6000803e3d6000fd5b5060408051600160a060020a03841681526020810183905281517f884edad9ce6fa2440d8a54cc123490eb96d2768479d49ff9c7366125a9424364929181900390910190a15050565b60006015828154811015156114f257fe5b9060005260206000209060030201600101549050919050565b600e54600160a060020a0316331461152257600080fd5b60115460a060020a900460ff16151561153a57600080fd5b6011805474ff0000000000000000000000000000000000000000191690556040517fa45f47fdea8a1efdd9029a5691c7f759c32b7c698632b563573e155625d1693390600090a1565b601054600090600160a060020a03163314806115a95750600e54600160a060020a031633145b806115be5750600f54600160a060020a031633145b806115cd57506115cd3361290f565b15156115d857600080fd5b60115460a060020a900460ff16156115ef57600080fd5b6115f9838361292d565b50600192915050565b61161e8383836020604051908101604052806000815250612305565b505050565b6111368282600034612616565b600e54600160a060020a0316331461164757600080fd5b600160a060020a038116151561165c57600080fd5b600f8054600160a060020a031916600160a060020a0392909216919091179055565b6010546000908190600160a060020a03163314806116a65750600e54600160a060020a031633145b806116bb5750600f54600160a060020a031633145b806116ca57506116ca3361290f565b15156116d557600080fd5b6116dd61323a565b60408051606081018252868152602080820187905260125483517f1b49e329000000000000000000000000000000000000000000000000000000008152600481018a905284519394850193600160a060020a0390921692631b49e32992602480840193829003018186803b15801561175457600080fd5b505afa158015611768573d6000803e3d6000fd5b505050506040513d602081101561177e57600080fd5b50519052601580546001810182556000919091528151600382027f55f448fdea98c4d29eb340757ef0a66cd03dbb9538908a6a81d96026b71ec47581019190915560208301517f55f448fdea98c4d29eb340757ef0a66cd03dbb9538908a6a81d96026b71ec4768201556040909201517f55f448fdea98c4d29eb340757ef0a66cd03dbb9538908a6a81d96026b71ec47790920182905593509150509250929050565b600061182b61117f565b821061183657600080fd5b600780548390811061184457fe5b90600052602060002001549050919050565b601a5481565b600160a060020a0381166000908152600560209081526040918290208054835181840281018401909452808452606093928301828280156118bc57602002820191906000526020600020905b8154815260200190600101908083116118a8575b50505050509050919050565b60115460a060020a900460ff1681565b600f54600160a060020a03163314806118fb5750600e54600160a060020a031633145b151561190657600080fd5b601154600160a060020a0316151561191d57600080fd5b601154604051600160a060020a0390911690303180156108fc02916000818181858888f19350505050158015611957573d6000803e3d6000fd5b50565b600081815260016020526040812054600160a060020a031680151561141757600080fd5b601054600160a060020a03163314806119a15750600e54600160a060020a031633145b806119b65750600f54600160a060020a031633145b806119c557506119c53361290f565b15156119d057600080fd5b6040805185815260208101859052808201849052606081018390529051600160a060020a0380881692908916917f64652f608145c2d6b460026bb5eab4523e9adc52a6eb053487a5392053756d3b9181900360800190a3505050505050565b601254604080517fb9186d7d000000000000000000000000000000000000000000000000000000008152600481018490529051600092600160a060020a03169163b9186d7d916024808301926020929190829003018186803b158015611a9457600080fd5b505afa158015611aa8573d6000803e3d6000fd5b505050506040513d6020811015611abe57600080fd5b505192915050565b6000600160a060020a0382161515611add57600080fd5b50600160a060020a031660009081526003602052604090205490565b611b01611c68565b1515611b0c57600080fd5b600c54604051600091600160a060020a0316907f8be0079c531659141344cd1fd0a4f28419497f9722a3daafe3b4186f6b6457e0908390a3600c8054600160a060020a0319169055565b601454600160a060020a031681565b600e54600160a060020a03163314611b7c57600080fd5b60128054600160a060020a031916600160a060020a0392909216919091179055565b601054600160a060020a0316331480611bc15750600e54600160a060020a031633145b80611bd65750600f54600160a060020a031633145b1515611be157600080fd5b60115460a060020a900460ff1615611bf857600080fd5b6011805474ff0000000000000000000000000000000000000000191660a060020a1790556040517f9e87fac88ff661f02d44f95383c817fece4bce600a3dab7a54406878b965e75290600090a1565b601c6020526000908152604090205481565b600c54600160a060020a031690565b600c54600160a060020a0316331490565b601254604080517f82afd23b000000000000000000000000000000000000000000000000000000008152600481018490529051600092600160a060020a0316916382afd23b916024808301926020929190829003018186803b158015611a9457600080fd5b600a8054604080516020601f60026000196101006001881615020190951694909404938401819004810282018101909252828152606093909290918301828280156110d85780601f106110ad576101008083540402835291602001916110d8565b600e54600160a060020a03163314611d5657600080fd5b600160a060020a03166000908152601b60205260409020805460ff19166001179055565b600e54600160a060020a03163314611d9157600080fd5b60138054600160a060020a031916600160a060020a0392909216919091179055565b600080600080600080600080606080611dca61323a565b601580548d908110611dd857fe5b600091825260208083206040805160608101825260039094029091018054808552600182015493850193909352600201548382015260125481517fbc5ba175000000000000000000000000000000000000000000000000000000008152600481019390935290519294508392600160a060020a039091169163bc5ba1759160248083019260e0929190829003018186803b158015611e7557600080fd5b505afa158015611e89573d6000803e3d6000fd5b505050506040513d60e0811015611e9f57600080fd5b508051602091820151601454604080517f7baca6cd0000000000000000000000000000000000000000000000000000000081526004810184905290519396509194506000936060938493600160a060020a03909316926369c212f6928492637baca6cd926024808201939291829003018186803b158015611f1f57600080fd5b505afa158015611f33573d6000803e3d6000fd5b505050506040513d6020811015611f4957600080fd5b50516040805160e060020a63ffffffff8516028152600160a060020a039092166004830152516024808301926000929190829003018186803b158015611f8e57600080fd5b505afa158015611fa2573d6000803e3d6000fd5b505050506040513d6000823e601f3d908101601f191682016040526080811015611fcb57600080fd5b8151602083015160408401805192949193820192640100000000811115611ff157600080fd5b8201602081018481111561200457600080fd5b815164010000000081118282018710171561201e57600080fd5b5050929190602001805164010000000081111561203a57600080fd5b8201602081018481111561204d57600080fd5b815164010000000081118282018710171561206757600080fd5b5050929190505050935093505092508560000151858588602001518960400151601260009054906101000a9004600160a060020a0316600160a060020a03166375b0d9cd8c600001516040518263ffffffff1660e060020a0281526004018082815260200191505060206040518083038186803b1580156120e757600080fd5b505afa1580156120fb573d6000803e3d6000fd5b505050506040513d602081101561211157600080fd5b50516012548c51604080517ff43d95840000000000000000000000000000000000000000000000000000000081526004810192909252518b92600160a060020a03169163f43d9584916024808301926020929190829003018186803b15801561217957600080fd5b505afa15801561218d573d6000803e3d6000fd5b505050506040513d60208110156121a357600080fd5b810190808051906020019092919050505089899f509f509f509f509f509f509f509f509f509f505050505050509193959799509193959799565b601054600160a060020a03163314806122005750600e54600160a060020a031633145b806122155750600f54600160a060020a031633145b8061222457506122243361290f565b151561222f57600080fd5b60115460a060020a900460ff161561224657600080fd5b601254604080517f9e53c554000000000000000000000000000000000000000000000000000000008152600481018490529051600160a060020a0390921691639e53c5549160248082019260009290919082900301818387803b1580156122ac57600080fd5b505af115801561131a573d6000803e3d6000fd5b60115460a060020a900460ff16156122d757600080fd5b611136828261297c565b601054600160a060020a031681565b601254600160a060020a031681565b60175481565b6123108484846111fd565b61231c84848484612a00565b151561232757600080fd5b50505050565b600e54600160a060020a0316331461234457600080fd5b60148054600160a060020a031916600160a060020a0392909216919091179055565b60185481565b60606123778261251e565b151561238257600080fd5b601254600160a060020a031663f1c6898261239c846125e4565b6040518263ffffffff1660e060020a0281526004018082815260200191505060006040518083038186803b1580156123d357600080fd5b505afa1580156123e7573d6000803e3d6000fd5b505050506040513d6000823e601f3d908101601f19168201604052602081101561241057600080fd5b81019080805164010000000081111561242857600080fd5b8201602081018481111561243b57600080fd5b815164010000000081118282018710171561245557600080fd5b50909695505050505050565b60165481565b61246f611c68565b151561247a57600080fd5b600160a060020a03919091166000908152600d60205260409020805460ff1916911515919091179055565b600160a060020a03918216600090815260046020908152604080832093909416825291909152205460ff1690565b60195481565b601154600160a060020a031681565b6124f0611c68565b15156124fb57600080fd5b61195781612b7d565b6000611417826125e4565b601354600160a060020a031681565b600090815260016020526040902054600160a060020a0316151590565b60006125468261195a565b9050600160a060020a03838116908216141561256157600080fd5b33600160a060020a038216148061257d575061257d81336124a5565b151561258857600080fd5b6000828152600260205260408082208054600160a060020a031916600160a060020a0387811691821790925591518593918516917f8c5be1e5ebec7d5bd14f71427d1e84f3dd0314c0f7b2291e5b200ac8c7c3b92591a4505050565b60006015828154811015156125f557fe5b9060005260206000209060030201600001549050919050565b6000903b1190565b61261f8461251e565b151561262a57600080fd5b6000848152601c60205260409020546126438583612bee565b601254604080517f7baca6cd000000000000000000000000000000000000000000000000000000008152600481018790529051600092600160a060020a031691637baca6cd916024808301926020929190829003018186803b1580156126a857600080fd5b505afa1580156126bc573d6000803e3d6000fd5b505050506040513d60208110156126d257600080fd5b50519050600160a060020a03841615156126f5576126f08382612c00565b612879565b601254604080517f75b0d9cd000000000000000000000000000000000000000000000000000000008152600481018890529051600160a060020a03909216916375b0d9cd91602480820192602092909190829003018186803b15801561275a57600080fd5b505afa15801561276e573d6000803e3d6000fd5b505050506040513d602081101561278457600080fd5b5051601254604080517f1b49e329000000000000000000000000000000000000000000000000000000008152600481018990529051600160a060020a0390921691631b49e32991602480820192602092909190829003018186803b1580156127eb57600080fd5b505afa1580156127ff573d6000803e3d6000fd5b505050506040513d602081101561281557600080fd5b50511461286d576040517f08c379a000000000000000000000000000000000000000000000000000000000815260040180806020018281038252602781526020018061329a6027913960400191505060405180910390fd5b61287934838387612ccb565b505050505050565b61288b3382612e55565b151561289657600080fd5b600160a060020a03821615156128ab57600080fd5b6128b58382612eac565b6128bf8382612f0e565b6128c98282613010565b8082600160a060020a031684600160a060020a03167fddf252ad1be2c89b69c2b068fc378daa952ba7f163c4a11628f55a4df523b3ef60405160405180910390a4505050565b600160a060020a03166000908152600d602052604090205460ff1690565b6129378282613056565b600780546000838152600860205260408120829055600182018355919091527fa66cc928b5edb82af9bd49922954155ab7b0942694bea4ce44661d9a8736c688015550565b600160a060020a03821633141561299257600080fd5b336000818152600460209081526040808320600160a060020a03871680855290835292819020805460ff1916861515908117909155815190815290519293927f17307eab39ab6107e8899845ad3d59bd9653f200f220920489ca2b5937696c31929181900390910190a35050565b6000612a1484600160a060020a031661260e565b1515612a2257506001612b75565b6040517f150b7a020000000000000000000000000000000000000000000000000000000081523360048201818152600160a060020a03888116602485015260448401879052608060648501908152865160848601528651600095928a169463150b7a029490938c938b938b939260a4019060208501908083838e5b83811015612ab5578181015183820152602001612a9d565b50505050905090810190601f168015612ae25780820380516001836020036101000a031916815260200191505b5095505050505050602060405180830381600087803b158015612b0457600080fd5b505af1158015612b18573d6000803e3d6000fd5b505050506040513d6020811015612b2e57600080fd5b50517bffffffffffffffffffffffffffffffffffffffffffffffffffffffff19167f150b7a0200000000000000000000000000000000000000000000000000000000149150505b949350505050565b600160a060020a0381161515612b9257600080fd5b600c54604051600160a060020a038084169216907f8be0079c531659141344cd1fd0a4f28419497f9722a3daafe3b4186f6b6457e090600090a3600c8054600160a060020a031916600160a060020a0392909216919091179055565b6000918252601c602052604090912055565b6000612c286064612c1c601954866130b190919063ffffffff16565b9063ffffffff6130e316565b90506000612c466064612c1c601a54876130b190919063ffffffff16565b600160a060020a0384166000908152601d6020526040902054909150612c72908363ffffffff61310716565b600160a060020a038085166000908152601d60205260408082209390935560115490911681522054612caa908263ffffffff61310716565b601154600160a060020a03166000908152601d602052604090205550505050565b8383108015612cdd5750606483850310155b15612e2c5760185483850390600090612d1390606490612c1c90612d07898763ffffffff61310716565b9063ffffffff6130b116565b600160a060020a0384166000908152601d6020526040902054909150612d3f908263ffffffff61310716565b600160a060020a0384166000908152601d6020526040812091909155601654612d7690606490612c1c90869063ffffffff6130b116565b600160a060020a0386166000908152601d6020526040902054909150612da2908263ffffffff61310716565b600160a060020a0386166000908152601d6020526040812091909155601754612dd990606490612c1c90879063ffffffff6130b116565b601154600160a060020a03166000908152601d6020526040902054909150612e07908263ffffffff61310716565b601154600160a060020a03166000908152601d60205260409020555061232792505050565b600160a060020a0381166000908152601d602052604090205461131a908563ffffffff61310716565b600080612e618361195a565b905080600160a060020a031684600160a060020a03161480612e9c575083600160a060020a0316612e91846110e3565b600160a060020a0316145b80612b755750612b7581856124a5565b81600160a060020a0316612ebf8261195a565b600160a060020a031614612ed257600080fd5b600081815260026020526040902054600160a060020a0316156111365760009081526002602052604090208054600160a060020a031916905550565b612f188282613119565b600081815260066020908152604080832054600160a060020a03861684526005909252822054909190612f5290600163ffffffff6131a216565b600160a060020a03851660009081526005602052604081208054929350909183908110612f7b57fe5b90600052602060002001549050806005600087600160a060020a0316600160a060020a0316815260200190815260200160002084815481101515612fbb57fe5b6000918252602080832090910192909255600160a060020a0387168152600590915260409020805490612ff290600019830161325c565b50600093845260066020526040808520859055908452909220555050565b61301a82826131b7565b600160a060020a039091166000908152600560209081526040808320805460018101825590845282842081018590559383526006909152902055565b600160a060020a038216151561306b57600080fd5b6130758282613010565b6040518190600160a060020a038416906000907fddf252ad1be2c89b69c2b068fc378daa952ba7f163c4a11628f55a4df523b3ef908290a45050565b60008215156130c257506000611417565b8282028284828115156130d157fe5b04146130dc57600080fd5b9392505050565b60008082116130f157600080fd5b600082848115156130fe57fe5b04949350505050565b6000828201838110156130dc57600080fd5b81600160a060020a031661312c8261195a565b600160a060020a03161461313f57600080fd5b600160a060020a03821660009081526003602052604090205461316990600163ffffffff6131a216565b600160a060020a039092166000908152600360209081526040808320949094559181526001909152208054600160a060020a0319169055565b6000828211156131b157600080fd5b50900390565b600081815260016020526040902054600160a060020a0316156131d957600080fd5b60008181526001602081815260408084208054600160a060020a031916600160a060020a038816908117909155845260039091529091205461321a91613107565b600160a060020a0390921660009081526003602052604090209190915550565b6060604051908101604052806000815260200160008152602001600081525090565b81548183558181111561161e5760008381526020902061161e9181019083016110e091905b808211156132955760008155600101613281565b509056fe5365636f6e64204d61726b6574206973206e6f74206f70656e20666f7220746865206173736574a165627a7a7230582069a5a17a26dfe08314253c934433ea3c6433cae4ccb4d2a2f14fccdf90437b1b0029",
  "linkReferences": {},
  "deployedLinkReferences": {}
}